{
  "contractName": "Counter",
  "abi": [
    {
      "inputs": [
        {
          "internalType": "address",
          "name": "",
          "type": "address"
        }
      ],
      "name": "counters",
      "outputs": [
        {
          "internalType": "uint256",
          "name": "",
          "type": "uint256"
        }
      ],
      "stateMutability": "view",
      "type": "function",
      "constant": true
    },
    {
      "inputs": [],
      "name": "getCounter",
      "outputs": [
        {
          "internalType": "uint256",
          "name": "",
          "type": "uint256"
        }
      ],
      "stateMutability": "view",
      "type": "function",
      "constant": true
    },
    {
      "inputs": [],
      "name": "incriment",
      "outputs": [],
      "stateMutability": "nonpayable",
      "type": "function"
    },
    {
      "inputs": [],
      "name": "decrimene",
      "outputs": [],
      "stateMutability": "nonpayable",
      "type": "function"
    }
  ],
  "bytecode": "0x608060405234801561001057600080fd5b50610357806100206000396000f3fe608060405234801561001057600080fd5b506004361061004c5760003560e01c806327046969146100515780638ada066e1461005b578063be60864614610079578063be65ab8c14610083575b600080fd5b6100596100b3565b005b610063610109565b60405161007091906101d6565b60405180910390f35b61008161014f565b005b61009d60048036038101906100989190610254565b6101a5565b6040516100aa91906101d6565b60405180910390f35b6000803373ffffffffffffffffffffffffffffffffffffffff1673ffffffffffffffffffffffffffffffffffffffff1681526020019081526020016000206000815480929190610102906102b0565b9190505550565b60008060003373ffffffffffffffffffffffffffffffffffffffff1673ffffffffffffffffffffffffffffffffffffffff16815260200190815260200160002054905090565b6000803373ffffffffffffffffffffffffffffffffffffffff1673ffffffffffffffffffffffffffffffffffffffff168152602001908152602001600020600081548092919061019e906102f8565b9190505550565b60006020528060005260406000206000915090505481565b6000819050919050565b6101d0816101bd565b82525050565b60006020820190506101eb60008301846101c7565b92915050565b600080fd5b600073ffffffffffffffffffffffffffffffffffffffff82169050919050565b6000610221826101f6565b9050919050565b61023181610216565b811461023c57600080fd5b50565b60008135905061024e81610228565b92915050565b60006020828403121561026a576102696101f1565b5b60006102788482850161023f565b91505092915050565b7f4e487b7100000000000000000000000000000000000000000000000000000000600052601160045260246000fd5b60006102bb826101bd565b91507fffffffffffffffffffffffffffffffffffffffffffffffffffffffffffffffff82036102ed576102ec610281565b5b600182019050919050565b6000610303826101bd565b91506000820361031657610315610281565b5b60018203905091905056fea26469706673582212201dc393e9e3f458c9d0fba20f2867c65811f1ba2b2fef5d7d9952a5d6aeffb6ea64736f6c63430008110033",
  "immutableReferences": {},
  "source": "// SPDX-License-Identifier: UNLICENSED\npragma solidity ^0.8.9;\n\ncontract Counter {\n    mapping(address => uint) public counters;\n\n    function getCounter() public view returns(uint) {\n        return counters[msg.sender];\n    }\n\n    function incriment() public {\n        counters[msg.sender] ++;\n    }\n\n    function decrimene() public {\n        counters[msg.sender] --;\n    }\n}",
  "sourcePath": "/home/udit/Desktop/counter-dapp/truffle/contracts/Couner.sol",
  "compiler": {
    "name": "solc",
    "version": "0.8.17+commit.8df45f5f.Emscripten.clang"
  },
  "schemaVersion": "3.4.10",
  "updatedAt": "2022-11-07T05:56:35.097Z",
  "networkType": "ethereum",
  "devdoc": {
    "kind": "dev",
    "methods": {},
    "version": 1
  },
  "userdoc": {
    "kind": "user",
    "methods": {},
    "version": 1
  }
}